:020000040000FA
:10000000680400206D02000071020000730200000D
:100010007502000077020000790200000000000075
:100020000000000000000000000000007B02000053
:100030007D020000000000007F020000810200003D
:10004000830200008302000083020000830200009C
:10005000830200008302000083020000830200008C
:10006000830200008302000083020000830200007C
:10007000830200008302000083020000830200006C
:10008000830200008302000083020000830200005C
:10009000830200008302000083020000830200004C
:1000A000830200008302000083020000830200003C
:1000B00083020000830200000504000083020000A8
:1000C000830200008302000083020000830200001C
:1000D000830200008302000083020000830200000C
:1000E00083020000830200008302000083020000FC
:1000F00083020000830200008302000083020000EC
:1001000083020000830200008302000083020000DB
:1001100083020000830200008302000083020000CB
:1001200083020000830200008302000083020000BB
:1001300083020000830200008302000083020000AB
:1001400000000000000000000000000000000000AF
:10015000830200008302000083020000830200008B
:10016000000000000000000000000000000000008F
:10017000000000000000000000000000000000007F
:10018000000000000000000000000000000000006F
:10019000000000000000000000000000000000005F
:1001A000000000000000000000000000000000004F
:1001B000830200008302000083020000830200002B
:1001C000830200008302000083020000830200001B
:1001D000830200008302000083020000830200000B
:1001E00083020000830200008302000083020000FB
:1001F00083020000830200008302000083020000EB
:10020000830200008302000083020000000000005F
:1002100083020000830200008302000083020000CA
:1002200083020000830200008302000083020000BA
:1002300083020000830200008302000083020000AA
:10024000830200008302000083020000830200009A
:10025000830200008302000083020000830200008A
:1002600083020000830200008302000000F00AB84D
:10027000FEE7FEE7FEE7FEE7FEE7FEE7FEE7FEE756
:10028000FEE7FEE700F002F800F042F814A696E858
:10029000000CB244B344DA4501D100F039F8BAE8B1
:1002A0000F000FA696E83000A5EB040504EB060747
:1002B000AAEB0704A7F101074FEA15154FEA34141A
:1002C000A4F10104AC4201D300F022F813F0010FB5
:1002D00018BFFB1A43F0010300F001F8DBE71847F1
:1002E0003006000040060000704700000023002494
:1002F00000250026103A28BF78C1FBD8520728BF36
:1003000030C148BF0B6070471FB51FBD10B510BD91
:1003100000F029F81146FFF7F7FF00F02BFA00F084
:1003200047F803B4FFF7F2FF03BC00F04FF80000FA
:1003300072B6704762B67047EFF3108072B67047BE
:1003400080F31088704730BF704702480249014A65
:10035000024B7047680000206804002068000020FD
:10036000704770477047754600F02CF8AE460500A0
:100370006946534620F00700854618B020B5FFF7C0
:10038000E4FFBDE820404FF000064FF000074FF0BB
:1003900000084FF0000BAC46ACE8C009ACE8C0095F
:1003A000ACE8C009ACE8C00921F007018D467047F0
:1003B00010B50446AFF300802046BDE81040FFF7BB
:1003C000B0BF00000048704700000020014918201D
:1003D000ABBEFEE7260002007047000082B001902D
:1003E00000910198013848F29801C4F202010860B6
:1003F0000098013848F29C01C4F20201086002B082
:100400007047000081B045F21C41C4F20201102087
:10041000086000200090FFE7009847F2FF01C0F25B
:100420000201884205DCFFE7FFE7009801300090F9
:10043000F2E740F26000C2F200000078C00738B175
:10044000FFE740F26001C2F200010020087006E000
:1004500040F26001C2F2000101200870FFE701B024
:10046000704700004EF24061C4F20F01086840F08E
:10047000010008604EF20861C4F20F01086840F004
:1004800002000860FFE74EF20860C4F20F00006847
:1004900000F00200022801D0FFE7F4E745F2004C2B
:1004A000C4F2000CDCF8000040F08800CCF800003A
:1004B00045F21C53C4F20003186840F0880018602D
:1004C00045F22852C4F20002106820F08800106043
:1004D00045F22041C4F20001086820F0880008605D
:1004E000DCF8000040F03000CCF80000186840F064
:1004F00030001860106820F030001060086840F08C
:100500003000086045F22C51C4F200010868442212
:1005100062F31740086048F28001C4F20201002033
:10052000086048F2A003C4F20203C8221A6048F22D
:10053000A403C4F2020340F608421A6048F2900392
:10054000C4F2020343F67F621A6048F29802C4F2D2
:100550000202106048F29C02C4F2020210600868B5
:1005600040F00100086048F20801C4F20201086886
:1005700040F00C00086070474EF20861C4F20F01B1
:10058000086840F020000860FFE74EF20860C4F2FF
:100590000F00006800F02000202801D0FFE7F4E7FA
:1005A00045F22051C4F2020144F24B30C4F64F40F0
:1005B000086045F22451C4F20201086840F01F00AF
:1005C000086045F2004CC4F2020CDCF8000040F078
:1005D0000E00CCF8000045F21C53C4F20203186868
:1005E00040F00E00186045F22852C4F20202106872
:1005F00020F00E00106045F22041C4F202010868AC
:1006000020F00E000860DCF8000020F01000CCF8AC
:100610000000186840F010001860106820F010000A
:100620001060086820F01000086045F21051C4F214
:100630000201086840F01000086045F20441C4F26D
:100640000201086820F01000086045F20841C4F279
:100650000201086820F01000086045F20C41C4F265
:100660000201086820F01000086045F21C41C4F245
:1006700002011020086045F21041C4F2020108682E
:1006800040F0100008604EF21C41CEF200010868F4
:10069000202262F3174008604EF20011CEF20001F2
:1006A000086840F0804008607047000041F20C018B
:1006B000C4F20301086820F00100086041F204015F
:1006C000C4F203010220086041F22801C4F20301D0
:1006D0004FF6FF70086041F23801C4F203010020B8
:1006E000086041F22401C4F2030101200860704750
:1006F00080B54EF20461C4F20F01086840F00200B8
:100700000860FFE74EF20460C4F20F00006800F0DA
:100710000200022801D0FFE7F4E741F20001C4F231
:10072000030104200860FFF7C1FF80BD82B0019083
:1007300000910198013841F22801C4F203010860D8
:10074000009841F23801C4F20301086041F20C0143
:10075000C4F20301086840F001000860FFE741F2BD
:100760004800C4F20300006808B1FFE7F7E702B0F1
:100770007047000080B58AB0002008900990FFF70C
:10078000FBFEFFF76FFEFFF7B3FF089945F2FC325F
:10079000C4F20202022010600846FFF71FFEFFE7C6
:1007A00045F2FC31C4F20201022008600021084633
:1007B000FFF714FEFFE740F26000C2F2000000788D
:1007C000C007002800F0A280FFE745F2FC31C4F228
:1007D000020102910820086045F2FC31C4F20001D8
:1007E0000491086840F0880008604FF4FA510591C0
:1007F0000846FFF7F3FD4FF6FF700690F4210791CE
:10080000FFF794FF029B049A059904200390186057
:10081000106820F0880010600846FFF7DFFD06989A
:100820000799FFF783FF029A049906201060086871
:1008300040F0880008604FF4965001904FF44861F2
:100840000091FFF7CBFD06980799FFF76FFF00981F
:100850000199DDF808C0049B0A22CCF800201A6830
:1008600042F088021A60FFF7B9FD06980799FFF772
:100870005DFF00990198DDF808C0049B0C22CCF8BC
:1008800000201A6822F088021A60FFF7A7FD069878
:100890000799FFF74BFF00980199DDF808C0049B0A
:1008A0000E22CCF800201A6822F088021A60FFF7A6
:1008B00095FD06980799FFF739FF029B0398049A64
:1008C00005991860106840F008001060106820F06A
:1008D000800010600846FFF781FD06980799FFF732
:1008E00025FF029B0398049A05991860106820F070
:1008F00008001060106840F0800010600846FFF7A4
:100900006DFD06980799FFF711FF54E748E70000CF
:10091000200900000000002068040000EC02000034
:040000050000026D88
:00000001FF
