:020000040000FA
:10000000600400206D020000710200007302000015
:100010007502000077020000790200000000000075
:100020000000000000000000000000007B02000053
:100030007D020000000000007F020000810200003D
:10004000830200008302000083020000830200009C
:10005000830200008302000083020000830200008C
:10006000830200008302000083020000830200007C
:10007000830200008302000083020000830200006C
:10008000830200008302000083020000830200005C
:10009000830200008302000083020000830200004C
:1000A000830200008302000083020000830200003C
:1000B00083020000830200000504000083020000A8
:1000C000830200008302000083020000830200001C
:1000D000830200008302000083020000830200000C
:1000E00083020000830200008302000083020000FC
:1000F00083020000830200008302000083020000EC
:1001000083020000830200008302000083020000DB
:1001100083020000830200008302000083020000CB
:1001200083020000830200008302000083020000BB
:1001300083020000830200008302000083020000AB
:1001400000000000000000000000000000000000AF
:10015000830200008302000083020000830200008B
:10016000000000000000000000000000000000008F
:10017000000000000000000000000000000000007F
:10018000000000000000000000000000000000006F
:10019000000000000000000000000000000000005F
:1001A000000000000000000000000000000000004F
:1001B000830200008302000083020000830200002B
:1001C000830200008302000083020000830200001B
:1001D000830200008302000083020000830200000B
:1001E00083020000830200008302000083020000FB
:1001F00083020000830200008302000083020000EB
:10020000830200008302000083020000000000005F
:1002100083020000830200008302000083020000CA
:1002200083020000830200008302000083020000BA
:1002300083020000830200008302000083020000AA
:10024000830200008302000083020000830200009A
:10025000830200008302000083020000830200008A
:1002600083020000830200008302000000F00AB84D
:10027000FEE7FEE7FEE7FEE7FEE7FEE7FEE7FEE756
:10028000FEE7FEE700F002F800F042F814A696E858
:10029000000CB244B344DA4501D100F039F8BAE8B1
:1002A0000F000FA696E83000A5EB040504EB060747
:1002B000AAEB0704A7F101074FEA15154FEA34141A
:1002C000A4F10104AC4201D300F022F813F0010FB5
:1002D00018BFFB1A43F0010300F001F8DBE71847F1
:1002E000A0030000B00300007047000000230024BA
:1002F00000250026103A28BF78C1FBD8520728BF36
:1003000030C148BF0B6070471FB51FBD10B510BD91
:1003100000F029F81146FFF7F7FF00F099F900F017
:1003200047F803B4FFF7F2FF03BC00F04FF80000FA
:1003300072B6704762B67047EFF3108072B67047BE
:1003400080F31088704730BF704702480249014A65
:10035000024B704760000020600400206000002015
:10036000704770477047754600F02CF8AE460500A0
:100370006946534620F00700854618B020B5FFF7C0
:10038000E4FFBDE820404FF000064FF000074FF0BB
:1003900000084FF0000BAC46ACE8C009ACE8C0095F
:1003A000ACE8C009ACE8C00921F007018D467047F0
:1003B00010B50446AFF300802046BDE81040FFF7BB
:1003C000B0BF00000048704700000020014918201D
:1003D000ABBEFEE7260002007047000082B001902D
:1003E00000910198013848F29801C4F202010860B6
:1003F0000098013848F29C01C4F20201086002B082
:100400007047000045F21C41C4F202011020086050
:1004100045F2FC31C4F20201086880F00200086075
:100420007047000010B54EF24061C4F20F01086839
:1004300040F0010008604EF20861C4F20F01086844
:1004400040F002000860FFE74EF20860C4F20F00BF
:10045000006800F00200022801D0FFE7F4E745F24F
:10046000004CC4F2000CDCF8000040F03000CCF886
:10047000000045F21C53C4F20003186840F030003D
:10048000186045F22852C4F20002106820F03000D3
:10049000106045F22041C4F20001086840F03000CD
:1004A000086045F22C5EC4F2000EDEF80000442421
:1004B00064F31740CEF80000DCF8000040F0CC00F8
:1004C000CCF80000186840F0CC001860106820F0EC
:1004D000CC001060086820F0CC00086048F2800171
:1004E000C4F202010020086048F2A003C4F2020333
:1004F000C8221A6048F2A403C4F2020340F608427C
:100500001A6048F29003C4F2020343F67F621A6055
:1005100048F29802C4F20202106048F29C02C4F24F
:1005200002021060086840F00100086048F208010B
:10053000C4F20201086840F00C00086010BD000021
:100540004EF20861C4F20F01086840F02000086014
:10055000FFE74EF20860C4F20F00006800F02000D0
:10056000202801D0FFE7F4E745F2004CC4F2020C6A
:10057000DCF8000040F00E00CCF8000045F21C53FF
:10058000C4F20203186840F00E00186045F22852C9
:10059000C4F20202106820F00E00106045F2204103
:1005A000C4F20201086820F00E000860DCF80000C8
:1005B00020F01000CCF80000186840F0100018601F
:1005C000106820F010001060086820F0100008602B
:1005D00045F21051C4F20201086840F010000860B2
:1005E00045F20441C4F20201086820F010000860DE
:1005F00045F20841C4F20201086820F010000860CA
:1006000045F20C41C4F20201086820F010000860B5
:1006100045F21C41C4F202011020086045F210416D
:10062000C4F20201086840F0100008604EF21C415C
:10063000CEF200010868202262F3174008604EF2F3
:100640000011CEF200014FF08040086070470000BA
:1006500080B582B000200190FFF772FFFFF7E2FE45
:1006600045F2FC31C4F20201086840F00200086063
:100670004FF448610846FFF7B1FEFFE7FEE70000D0
:10068000900600000000002060040000EC02000062
:040000050000026D88
:00000001FF
